:1000000071C000008EC000008CC000008AC00000DB
:1000100088C0000086C0000084C0000082C00000CC
:1000200080C000007EC000007CC000007AC00000DC
:1000300078C0000076C0000074C0000072C00000EC
:1000400070C000006EC000006CC000006AC00000FC
:1000500068C0000079C0000064C0000062C00000F9
:1000600060C000005EC000005CC000005AC000001C
:1000700058C0000056C0000054C0000052C000002C
:1000800050C000004EC000004CC000004AC000003C
:1000900048C0000046C0000044C0000042C000004C
:1000A00040C000003EC000003CC000003AC000005C
:1000B00038C0000036C0000034C0000032C000006C
:1000C00030C000002EC000002CC000002AC000007C
:1000D00028C0000026C0000024C0000022C000008C
:1000E00020C0000011241FBECFEFD1E2DEBFCDBF84
:1000F00000E00CBF12E0A0E0B2E0E6EFF2E000E0CA
:100100000BBF02C007900D92A030B107D9F722E0D3
:10011000A0E0B2E001C01D92A930B207E1F702D021
:10012000E8C06ECF80E090E00895882351F093E21C
:100130009093B0009EE09093B10081508093B30003
:1001400008951092B10008951F920F920FB60F926A
:1001500011240BB60F922F933F934F935F936F939E
:100160007F938F939F93AF93BF93EF93FF93809170
:100170000002909101020196909301028093000287
:1001800020910302309104028217930708F44CC0B7
:100190001092010210920002809102028823C9F19C
:1001A0009091060280910502981799F1109202022F
:1001B00080910602E0910702F091080294E0899F85
:1001C000E00DF11D11246081718180E094E03FD049
:1001D0009B0140E050E060E074E284EF90E04BD09F
:1001E000822FA3DF80910602E0910702F0910802BE
:1001F00094E0899FE00DF11D1124828193819093F9
:10020000040280930302809106028F5F80930602AE
:100210000BC081E08093020280E087DF8AE090E0FB
:100220009093040280930302FF91EF91BF91AF91ED
:100230009F918F917F916F915F914F913F912F91FE
:100240000F900BBE0F900FBE0F901F901895AA1B1A
:10025000BB1B51E107C0AA1FBB1FA617B70710F0B1
:10026000A61BB70B881F991F5A95A9F780959095E3
:10027000BC01CD010895052E97FB16F400940FD014
:1002800057FD05D014D007FC02D046F408C05095A5
:100290004095309521953F4F4F4F5F4F0895909572
:1002A0008095709561957F4F8F4F9F4F0895A1E284
:1002B0001A2EAA1BBB1BFD010DC0AA1FBB1FEE1FE0
:1002C000FF1FA217B307E407F50720F0A21BB30B2B
:1002D000E40BF50B661F771F881F991F1A9469F7A7
:1002E00060957095809590959B01AC01BD01CF0103
:0602F0000895F894FFCF11
:00000001FF
