S00B00005031312E7372656367
S113000071C000008EC000008CC000008AC00000D7
S113001088C0000086C0000084C0000082C00000C8
S113002080C000007EC000007CC000007AC00000D8
S113003078C0000076C0000074C0000072C00000E8
S113004070C000006EC000006CC000006AC00000F8
S113005068C0000093C1000064C0000062C00000DA
S113006060C0000056C30000A7C200005AC00000D0
S113007058C0000056C0000054C0000052C0000028
S113008050C000004EC000004CC000004AC0000038
S113009048C0000046C0000044C0000042C0000048
S11300A040C000003EC000003CC000003AC0000058
S11300B038C0000036C0000034C0000032C0000068
S11300C030C000002EC000002CC000002AC0000078
S11300D028C0000026C0000024C0000022C0000088
S11300E020C0000011241FBECFEFD1E2DEBFCDBF80
S11300F000E00CBF13E0A0E0B2E0EEE8F9E000E0BD
S11301000BBF02C007900D92A839B107D9F724E0BC
S1130110A8E9B3E001C01D92A034B207E1F7CAD048
S113012034C46ECF91B121E030E0082E02C0220F1A
S1130130331F0A94E2F72095292321B98064809320
S11301407C0087EC80937A00EAE7F0E0808186FD0A
S1130150FDCF80917800909179002091980330919F
S11301609903821B0895CF93DF93CDB7DEB72A9707
S11301700FB6F894DEBF0FBECDBF81E080937E0042
S11301808FE580937C0087EC80937A00EBE7F0E0C6
S11301908081877F8083EAE7F0E0808186FDFDCF60
S11301A08091780090E090939903809398038091D4
S11301B0790060919803709199034AE0CE01019609
S11301C0FDD281E092E0ECD2CE010196E9D22A96EA
S11301D00FB6F894DEBF0FBECDBFDF91CF91089567
S11301E01F93CF93DF93CDB7DEB764970FB6F89420
S11301F0DEBF0FBECDBF182F51D250D24FD285E1F2
S113020092E0CED24BD289E392E0CAD2812F8ADF28
S113021090E090939B0380939A0360919A0370916A
S11302209B034AE0CE010196C9D2CE010196B8D211
S113023084E492E0B5D232D2812F74DF90E09093BF
S11302409D0380939C0389E692E0AAD260919C036B
S113025070919D034AE0CE010B96B0D2CE010B966D
S11302609FD21CD264960FB6F894DEBF0FBECDBFEA
S1130270DF91CF911F910895282F30E040919C0386
S113028050919D034217530730F480919C03909141
S11302909D0307C1089540919A0350919B0324172D
S11302A0350730F480919A0390919B03FAC0089526
S11302B0F8C0089580E090E00AD1F0D22FD053DF47
S11302C080E08EDFC4E6D5D1882341F0E7D18037C2
S11302D029F466E470E084E792E0CFD080E022DF86
S11302E0E0919A03F0919B0360919C0370919D03AC
S11302F020919A0330919B03CE9FA001CF9F500D74
S11303001124E82FE49FC001E59F900D1124621B86
S1130310730BDAD28C2F861BAFDFD5CF82E084BD7E
S113032093E095BD16BC99EF97BD80936E007894C9
S11303300895882301F193E29093B0009EE0909396
S1130340B1008150E3EBF0E0808340818091B603FB
S11303509091B703489F9001499F300D1124369521
S1130360279536952795ABE7B4E1DED29695879528
S11303708093B40008951092B10008951F920F92D3
S11303800FB60F9211240BB60F922F933F934F93F6
S11303905F936F937F938F939F93AF93BF93EF93E9
S11303A0FF938091B2039091B30301969093B303AA
S11303B08093B2032091B4033091B503821793075D
S11303C008F448C01092B3031092B2038091000263
S11303D08823A9F19091B9038091B803981779F112
S11303E08091B903E091BA03F091BB0394E0899F33
S11303F0E00DF11D11242081318140E050E064E2E0
S113040074EF80E090E074D2822F93DF10920002A8
S11304108091B903E091BA03F091BB0394E0899F02
S1130420E00DF11D1124828193819093B503809393
S1130430B4038091B9038F5F8093B9030BC081E04B
S11304408093000280E075DF8AE090E09093B5032A
S11304508093B403FF91EF91BF91AF919F918F91DE
S11304607F916F915F914F913F912F910F900BBEB0
S11304700F900FBE0F901F9018959093BB0380931D
S1130480BA031092B9036093B80382E390E09093A7
S1130490B7038093B603E1E0F1E080818064808358
S11304A00895082E000C990B9093B7038093B6031C
S11304B06091B6037091B7034AE08EE993E07ED170
S11304C08CE893E06DD18EE993E06AC1089582E0EF
S11304D08093C000E1ECF0E088E1808386E08093C3
S11304E0C2007894808180688083ECEFF3E080819F
S11304F0807C808380818F7380838181807F8183EE
S1130500EEE3F4E08081807C808380818F7380833C
S11305108181807F81830895EEE3F4E0AFE3B4E06A
S113052040814F732081922F929596959695937062
S11305302C912F70220F220F292B50E030E02150F4
S113054031094217530761F3EEE3F4E030813F735E
S11305509081292F229526952695237090913F040A
S11305609F70990F990F922B391315C0DF01E08109
S1130570EF7391E09E0F292F2F739C91907C922B07
S11305809C93F0E0E250FC4F8083E1ECF0E080814A
S1130590806280830895AEE3B4E0EC91EF7391E060
S11305A09E0F292F2F739C91907C922B9C93F0E0AB
S11305B0E250FC4F808308951F920F920FB60F9262
S11305C011240BB60F922F938F939F93AF93BF93E6
S11305D0EF93FF93EEE3F4E020812F738081982F53
S11305E0929596959695937080913F048F70880F9D
S11305F0880F892B281306C0E1ECF0E080818F7D01
S1130600808329C0AEE3B4E0EC918E2F8295869569
S113061086958370E0913F04EF70EE0FEE0FE82BA8
S113062081E08E0F8F73282F2295220F220F207CBA
S11306309C919F73922B9C938695869511969C9181
S11306401197907F892B11968C93F0E0E250FC4F28
S113065080818093C600FF91EF91BF91AF919F91EC
S11306608F912F910F900BBE0F900FBE0F901F9084
S11306701895ECEFF3E020812F739081892F8295F8
S11306808695869583709091FD039F70990F990FBD
S1130690982B81E0291301C080E00895ECEFF3E08A
S11306A0ADEFB3E020812F738081982F92959695BA
S11306B0969593708C918F70880F880F892B2817CB
S11306C089F3ACEFB3E0EC918E2F829586958695F5
S11306D08370E091FD03EF70EE0FEE0FE82B81E0E5
S11306E08E0F8F73282F2295220F220F207C9C912E
S11306F09F73922B9C938695869511969C91119746
S1130700907F892B11968C93F0E0E454FC4F808108
S113071008951F920F920FB60F9211240BB60F92E9
S11307202F933F938F939F93AF93BF93EF93FF9335
S1130730ECEFF3E0ADEFB3E020812F738081982FCD
S113074092959695969593708C918F70880F880FDB
S1130750892B30E090E001972817390769F3ACEF53
S1130760B3E0EC91EF7381E08E0F982F9F738C911F
S1130770807C892B8C938091C600F0E0E454FC4F7C
S11307808083FF91EF91BF91AF919F918F913F91A2
S11307902F910F900BBE0F900FBE0F901F901895C6
S11307A0CF93DF93EC018881882329F02196B4DE6E
S11307B089918111FCCFDF91CF910895AF92BF92BF
S11307C0CF92DF92EF92FF920F931F93CF93DF9319
S11307D0CDB7DEB764970FB6F894DEBF0FBECDBFBA
S11307E08C019B0161157105D1F5FC01319680E303
S11307F0D8018C9332C06F01C901B50165D0F701EE
S113080081937F01262F372FF6013196211531056B
S113081091F7CD2809F1BF016150710981E090E0A1
S11308208C0F9D1FE80FF91F7801AE014E5F5F4FDB
S113083031979F0180818A3010F0895F8083D901CC
S11308408C91805DD7018D937D01E417F50781F7C5
S1130850F801E60FF71F01C0F80110820EC0A42EA4
S1130860B12CCB01B50130D089837E01B2E0EB0E0F
S1130870F11CCC24C394D12CBFCF64960FB6F8944A
S1130880DEBF0FBECDBFDF91CF911F910F91FF90BF
S1130890EF90DF90CF90BF90AF9008958EEF8DB919
S11308A086E08093C20014BC82E085BD6099FECFCF
S11308B016BC609BFECF15BC86B590E00197909363
S11308C0C5008093C4000895AA1BBB1B51E107C057
S11308D0AA1FBB1FA617B70710F0A61BB70B881FCC
S11308E0991F5A95A9F780959095BC01CD0108955B
S11308F0052E97FB16F400940FD057FD05D023D096
S113090007FC02D046F408C05095409530952195D7
S11309103F4F4F4F5F4F0895909580957095619527
S11309207F4F8F4F9F4F0895A29FB001B39FC00187
S1130930A39F700D811D1124911DB29F700D811D07
S11309401124911D0895A1E21A2EAA1BBB1BFD01BF
S11309500DC0AA1FBB1FEE1FFF1FA217B307E4079A
S1130960F50720F0A21BB30BE40BF50B661F771FF2
S1130970881F991F1A9469F76095709580959095D2
S11109809B01AC01BD01CF010895F894FFCF97
S113098E010A0D4F66667365742063617074757227
S113099E61646F3A000A0A0D50726573696F6E6571
S11309AE207061726120636170747572617220656A
S11309BE6C206D696E696D6F000A0D4D696E696DFF
S11309CE6F3A20000A0A0D50726573696F6E6520C6
S11309DE7061726120636170747572617220656CEE
S11309EE206D6178696D6F2E000A0D4D6178696D09
S11309FE6F3A2000B801F401B801F401B801F40112
S1130A0E5D0177010B027D00B801F4015D017701F0
S1130A1E0B027D00B801E8039302F4019302F40182
S1130A2E9302F401BA0277010B027D009F01F401D7
S1130A3E5D0177010B027D00B801E8037003F40138
S1130A4EB8017701B8017D007003F4013E03FA008A
S1130A5E1003FA00E4027D00BA027D00E402FA00FB
S1130A6E0000FA00D201FA006E02F4014B02FA0001
S1130A7E2A02FA000B027D00EE017D000B02FA0041
S1130A8E0000FA005D017D009F01F4015D01770114
S1130A9EB8017D000B02F401B80177010B027D0051
S1130AAE9302E8037003F401B8017701B8017D00E5
S1130ABE7003F4013E03FA001003FA00E4027D0011
S1130ACEBA027D00E402FA000000FA00D201FA0034
S1130ADE6E02F4014B02FA002A02FA000B027D00A8
S1130AEEEE017D000B02FA000000FA005D01FA002F
S1130AFE9F01F4015D0177010B027D00B801F40141
S1130B0E5D01770105017D00B801E8030A0D566FFA
S10B0B1E6C756D656E3A200050
S9030000FC
