:1000000071C000008EC000008CC000008AC00000DB
:1000100088C0000086C0000084C0000082C00000CC
:1000200080C000007EC000007CC000007AC00000DC
:1000300078C0000076C0000074C0000072C00000EC
:1000400070C000006EC000006CC000006AC00000FC
:1000500068C0000071C1000064C0000062C0000000
:1000600060C0000034C3000085C200005AC0000018
:1000700058C0000056C0000054C0000052C000002C
:1000800050C000004EC000004CC000004AC000003C
:1000900048C0000046C0000044C0000042C000004C
:1000A00040C000003EC000003CC000003AC000005C
:1000B00038C0000036C0000034C0000032C000006C
:1000C00030C000002EC000002CC000002AC000007C
:1000D00028C0000026C0000024C0000022C000008C
:1000E00020C0000011241FBECFEFD1E2DEBFCDBF84
:1000F00000E00CBF13E0A0E0B2E0EAE4F9E000E0C9
:100100000BBF02C007900D92A83EB107D9F724E0BB
:10011000A8EEB3E001C01D92A039B207E1F7ABD061
:1001200012C46ECF91B121E030E0082E02C0220F40
:10013000331F0A94E2F72095292321B98064809324
:100140007C0087EC80937A00EAE7F0E0808186FD0E
:10015000FDCF80917800909179002091E803309153
:10016000E903821B0895CF93DF93CDB7DEB72A97BB
:100170000FB6F894DEBF0FBECDBF81E080937E0046
:100180008FE580937C0087EC80937A00EBE7F0E0CA
:100190008081877F8083EAE7F0E0808186FDFDCF64
:1001A0008091780090E09093E9038093E803809138
:1001B00079006091E8037091E9034AE0CE0101966D
:1001C000DBD281E092E0CAD2CE010196C7D22A9654
:1001D0000FB6F894DEBF0FBECDBFDF91CF9108956B
:1001E0001F93CF93DF93CDB7DEB764970FB6F89424
:1001F000DEBF0FBECDBF182F2FD22ED22DD285E15C
:1002000092E0ACD229D289E392E0A8D2812F8ADF92
:1002100090E09093EB038093EA036091EA0370917E
:10022000EB034AE0CE010196A7D2CE01019696D209
:1002300084E492E093D210D2812F74DF90E0909307
:10024000ED038093EC0389E692E088D26091EC03A1
:100250007091ED034AE0CE010B968ED2CE010B9643
:100260007DD264960FB6F894DEBF0FBECDBFDF918E
:10027000CF911F91089580E090E007D1EDD22CD06E
:1002800072DF80E0ADDFC4E6D2D1882341F0E4D153
:10029000803729F46AE570E084E792E0CCD080E012
:1002A00041DFE091EA03F091EB036091EC03709180
:1002B000ED034091EA035091EB03282F30E02E1B11
:1002C0003F0BC29FC001C39F900D1124641B750B8F
:1002D000D9D2862FC4D0D8CF82E084BD93E095BD1B
:1002E00016BC99EF97BD80936E007894089588238B
:1002F00001F193E29093B0009EE09093B1008150A1
:10030000E3EBF0E080834081809106049091070444
:10031000489F9001499F300D1124369527953695B9
:100320002795ABE7B4E1DED2969587958093B4002C
:1003300008951092B10008951F920F920FB60F9278
:1003400011240BB60F922F933F934F935F936F93AC
:100350007F938F939F93AF93BF93EF93FF9380917E
:10036000EE039091EF0301969093EF038093EE03D9
:100370002091F0033091F1038217930708F448C0ED
:100380001092EF031092EE03809100028823A9F1EE
:100390009091090480910804981779F180910904DB
:1003A000E0910A04F0910B0494E0899FE00DF11DA7
:1003B00011242081318140E050E064E274EF80E05C
:1003C00090E074D2822F93DF109200028091090492
:1003D000E0910A04F0910B0494E0899FE00DF11D77
:1003E0001124828193819093F1038093F003809193
:1003F00009048F5F809309040BC081E080930002A1
:1004000080E075DF8AE090E09093F1038093F00341
:10041000FF91EF91BF91AF919F918F917F916F91DC
:100420005F914F913F912F910F900BBE0F900FBE98
:100430000F901F90189590930B0480930A041092CC
:1004400009046093080482E390E09093070480938A
:100450000604E1E0F1E08081806480830895082E45
:10046000000C990B90930704809306046091060496
:10047000709107044AE082EF93E07ED18CED93E027
:100480006DD182EF93E06AC1089582E08093C0004D
:10049000E1ECF0E088E1808386E08093C20078940C
:1004A000808180688083ECE4F4E08081807C8083BC
:1004B00080818F7380838181807F8183EEE8F4E087
:1004C0008081807C808380818F7380838181807F25
:1004D00081830895EEE8F4E0AFE8B4E040814F7323
:1004E0002081922F92959695969593702C912F70CE
:1004F000220F220F292B50E030E021503109421702
:10050000530761F3EEE8F4E030813F739081292FC7
:10051000229526952695237090918F049F70990FB0
:10052000990F922B391315C0DF01E081EF7391E031
:100530009E0F292F2F739C91907C922B9C93F0E01F
:10054000E25BFB4F8083E1ECF0E08081806280839E
:100550000895AEE8B4E0EC91EF7391E09E0F292F7F
:100560002F739C91907C922B9C93F0E0E25BFB4F6D
:10057000808308951F920F920FB60F9211240BB62D
:100580000F922F938F939F93AF93BF93EF93FF930C
:10059000EEE8F4E020812F738081982F9295969554
:1005A0009695937080918F048F70880F880F892B98
:1005B000281306C0E1ECF0E080818F7D808329C0A4
:1005C000AEE8B4E0EC918E2F829586958695837087
:1005D000E0918F04EF70EE0FEE0FE82B81E08E0FAD
:1005E0008F73282F2295220F220F207C9C919F73BE
:1005F000922B9C938695869511969C911197907F4E
:10060000892B11968C93F0E0E25BFB4F8081809305
:10061000C600FF91EF91BF91AF919F918F912F9164
:100620000F900BBE0F900FBE0F901F901895ECE42B
:10063000F4E020812F739081892F8295869586958D
:10064000837090914D049F70990F990F982B81E0C2
:10065000291301C080E00895ECE4F4E0ADE4B4E0D7
:1006600020812F738081982F9295969596959370FF
:100670008C918F70880F880F892B281789F3ACE431
:10068000B4E0EC918E2F8295869586958370E091EB
:100690004D04EF70EE0FEE0FE82B81E08E0F8F739D
:1006A000282F2295220F220F207C9C919F73922B42
:1006B0009C938695869511969C911197907F892B96
:1006C00011968C93F0E0E45FFB4F808108951F92B8
:1006D0000F920FB60F9211240BB60F922F933F93E8
:1006E0008F939F93AF93BF93EF93FF93ECE4F4E06A
:1006F000ADE4B4E020812F738081982F9295969578
:10070000969593708C918F70880F880F892B30E0AD
:1007100090E001972817390769F3ACE4B4E0EC9155
:10072000EF7381E08E0F982F9F738C91807C892BC3
:100730008C938091C600F0E0E45FFB4F8083FF91D3
:10074000EF91BF91AF919F918F913F912F910F901A
:100750000BBE0F900FBE0F901F901895CF93DF9395
:10076000EC018881882329F02196B4DE89918111DA
:10077000FCCFDF91CF910895AF92BF92CF92DF92DD
:10078000EF92FF920F931F93CF93DF93CDB7DEB716
:1007900064970FB6F894DEBF0FBECDBF8C019B01EE
:1007A00061157105D1F5FC01319680E3D8018C9378
:1007B00032C06F01C901B50165D0F70181937F0196
:1007C000262F372FF60131962115310591F7CD28C7
:1007D00009F1BF016150710981E090E08C0F9D1F0C
:1007E000E80FF91F7801AE014E5F5F4F31979F010F
:1007F00080818A3010F0895F8083D9018C91805D7F
:10080000D7018D937D01E417F50781F7F801E60F15
:10081000F71F01C0F80110820EC0A42EB12CCB012D
:10082000B50130D089837E01B2E0EB0EF11CCC24FF
:10083000C394D12CBFCF64960FB6F894DEBF0FBE21
:10084000CDBFDF91CF911F910F91FF90EF90DF907F
:10085000CF90BF90AF9008958EEF8DB986E08093D2
:10086000C20014BC82E085BD6099FECF16BC609BBF
:10087000FECF15BC86B590E001979093C50080939C
:10088000C4000895AA1BBB1B51E107C0AA1FBB1FD0
:10089000A617B70710F0A61BB70B881F991F5A950C
:1008A000A9F780959095BC01CD010895052E97FB81
:1008B00016F400940FD057FD05D023D007FC02D0CA
:1008C00046F408C050954095309521953F4F4F4FC5
:1008D0005F4F089590958095709561957F4F8F4FEC
:1008E0009F4F0895A29FB001B39FC001A39F700DB9
:1008F000811D1124911DB29F700D811D1124911D28
:100900000895A1E21A2EAA1BBB1BFD010DC0AA1F50
:10091000BB1FEE1FFF1FA217B307E407F50720F068
:10092000A21BB30BE40BF50B661F771F881F991FE3
:100930001A9469F760957095809590959B01AC012C
:0A094000BD01CF010895F894FFCF28
:10094A00010A0D4F6666736574206361707475726F
:10095A0061646F3A000A0A0D50726573696F6E65B9
:10096A0020706172612063617074757261722065B2
:10097A006C206D696E696D6F000A0D4D696E696D47
:10098A006F3A20000A0A0D50726573696F6E65200E
:10099A007061726120636170747572617220656C36
:1009AA00206D6178696D6F2E000A0D4D6178696D51
:1009BA006F3A2000F700BB002601BB007201BB00A2
:1009CA00EE017102B801BB009F0177017201BB0001
:1009DA0026017701F700EE02F700BB002601BB00F3
:1009EA007201BB00EE017102B801BB009F017701E1
:1009FA007201BB0026017701F700EE022601BB0057
:100A0A002601BB002601BB001501BB0026013801E7
:100A1A00DC0071022601BB002601BB001501BB00E8
:100A2A0026013801DC0038017201BB007201BB00EB
:100A3A007201BB004901BB00720138011501710244
:100A4A007201BB007201BB004901BB00720138018F
:100A5A00150138018701FA008701FA008701FA00B7
:100A6A008701FA004901FA002601FA001501DC059E
:100A7A008701FA008701FA008701FA008701FA0064
:100A8A004901FA002601FA001501DC052601BB001E
:100A9A002601BB002601BB001501BB002601380157
:100AAA00DC0071022601BB002601BB001501BB0058
:100ABA0026013801DC0038017201BB007201BB005B
:100ACA007201BB004901BB007201380115017102B4
:100ADA007201BB007201BB004901BB0072013801FF
:100AEA00150138018701FA008701FA008701FA0027
:100AFA008701FA004901FA002601FA001501DC050E
:100B0A008701FA008701FA008701FA008701FA00D3
:100B1A004901FA002601FA001501DC050A0D566F93
:080B2A006C756D656E3A200048
:00000001FF
