:1000000071C000008EC000008CC000008AC00000DB
:1000100088C0000086C0000084C0000082C00000CC
:1000200080C000007EC000007CC000007AC00000DC
:1000300078C0000003C2000074C0000072C000005D
:1000400070C000006EC000006CC000006AC00000FC
:1000500068C0000054C1000064C0000062C000001D
:1000600060C0000032C2000077C200005AC0000029
:1000700058C0000056C0000054C0000052C000002C
:1000800050C000004EC000004CC000004AC000003C
:1000900048C0000046C0000044C0000042C000004C
:1000A00040C000003EC000003CC000003AC000005C
:1000B00038C0000036C0000034C0000032C000006C
:1000C00030C000002EC000002CC000002AC000007C
:1000D00028C0000026C0000024C0000022C000008C
:1000E00020C0000011241FBECFEFD1E2DEBFCDBF84
:1000F00000E00CBF13E0A0E0B2E0E4E2F9E000E0D1
:100100000BBF02C007900D92A83AB107D9F724E0BF
:10011000A8EAB3E001C01D92A234B207E1F7ABD068
:10012000FFC36ECFCF9391B121E030E0082E02C023
:10013000220F331F0A94E2F72095292321B9ECE717
:10014000F0E09081892B8083EAE7F0E08081806491
:100150008083C09178008091790081E092E06DD336
:100160008C2FCF910895CF93C82F82E192E065D371
:1001700050D286E392E061D38C2FD4DF90E090934D
:10018000AB038093AA038AE492E057D342D28C2F28
:10019000C9DF90E09093AD038093AC03CF910895B5
:1001A000CF93DF93CDB7DEB72A970FB6F894DEBFB3
:1001B0000FBECDBFECE7F0E080818F618083EAE77E
:1001C000F0E0808180648083808186FDFDCF809116
:1001D000780090E09093A9038093A8038091790020
:1001E0006091A8037091A9034AE0CE0101967DD2E7
:1001F0008FE692E022D3CE0101961FD32A960FB646
:10020000F894DEBF0FBECDBFDF91CF91089580E49B
:1002100080937C0087E880937A00C2CF0895CF93C3
:10022000DF93CDB7DEB764970FB6F894DEBF0FBE8D
:10023000CDBF4091B300282F30E0429FC001439FC3
:10024000900D112464E670E01AD36093B4004AE084
:10025000B901CE01019649D283E892E0EED2CE01F7
:100260000196EBD264960FB6F894DEBF0FBECDBFF9
:10027000DF91CF91089580E090E074D20BD125D02A
:10028000C6DF8DE68AD2C5D180E06DDFC4E6FCD141
:10029000882341F0BED1803729F466E470E08FE80E
:1002A00092E0ACD080E03EDF6091B0037091B1038A
:1002B0002091AE033091AF03C89FC0011124621B8F
:1002C000730BC9D2862FABDFE2CF82E084BD93E00F
:1002D00095BD16BC99EF97BD80936E0078940895F4
:1002E000882351F093E29093B0009EE09093B10088
:1002F00081508093B30008951092B10008951F9229
:100300000F920FB60F9211240BB60F922F933F93BB
:100310004F935F936F937F938F939F93AF93BF930D
:10032000EF93FF938091B2039091B3030196909362
:10033000B3038093B2032091B4033091B5038217C5
:10034000930708F448C01092B3031092B20380914F
:1003500000028823A9F19091B9038091B8039817FE
:1003600079F18091B903E091BC03F091BD0394E071
:10037000899FE00DF11D11242081318140E050E082
:1003800064E274EF80E090E08DD2822FA9DF1092BA
:1003900000028091B903E091BC03F091BD0394E0A9
:1003A000899FE00DF11D1124828193819093B50303
:1003B0008093B4038091B9038F5F8093B9030BC01E
:1003C00081E08093000280E08BDF8AE090E09093F0
:1003D000B5038093B403FF91EF91BF91AF919F91CB
:1003E0008F917F916F915F914F913F912F910F90DE
:1003F0000BBE0F900FBE0F901F9018959093BD03EA
:100400008093BC031092B9036093B80382E390E039
:100410009093B7038093B603E1E0F1E080818064BC
:10042000808308959091BB038091BA03981304C010
:100430001092BA0381E0089580E008951F920F9210
:100440000FB60F9211240BB60F922F933F934F9339
:100450005F936F937F938F939F93AF93BF93EF932C
:10046000FF938091BA038F5F8093BA03DBDFFF9124
:10047000EF91BF91AF919F918F917F916F915F911C
:100480004F913F912F910F900BBE0F900FBE0F9089
:100490001F9018958EEF8DB982E08093C00098E18F
:1004A0009093C10096E09093C20014BC85BD609902
:1004B000FECF16BC609BFECF15BC86B590E00197C1
:1004C0009093C5008093C40008951F920F920FB6B9
:1004D0000F9211240BB60F922F933F938F939F93FC
:1004E000AF93BF93EF93FF93EEEFF3E0AFEFB3E083
:1004F00020812F738081982F929596959695937071
:100500008C918F70880F880F892B30E090E00197D5
:100510002817390769F3AEEFB3E0EC91EF7381E090
:100520008E0F982F9F738C91807C892B8C93809158
:10053000C600F0E0E254FC4F8083FF91EF91BF9141
:10054000AF919F918F913F912F910F900BBE0F9084
:100550000FBE0F901F9018951F920F920FB60F921B
:1005600011240BB60F922F938F939F93AF93BF934A
:10057000EF93FF93E0E4F4E020812F738081982FC4
:100580009295969596959370809141048F70880FFF
:10059000880F892B281306C0E1ECF0E080818F7D65
:1005A000808329C0A0E4B4E0EC918E2F82958695DB
:1005B00086958370E0914104EF70EE0FEE0FE82B0B
:1005C00081E08E0F8F73282F2295220F220F207C1F
:1005D0009C919F73922B9C938695869511969C91E6
:1005E0001197907F892B11968C93F0E0E050FC4F8F
:1005F00080818093C600FF91EF91BF91AF919F9151
:100600008F912F910F900BBE0F900FBE0F901F90E8
:100610001895E0E4F4E0A1E4B4E020812F73808138
:10062000982F92959695969593708C918F70880FD0
:10063000880F892B281789F3A0E4B4E0EC918E2F62
:100640008295869586958370E0914104EF70EE0F58
:10065000EE0FE82B81E08E0F8F73282F2295220F4B
:10066000220F207C9C919F73922B9C93869586955C
:1006700011969C911197907F892B11968C93F0E0A5
:10068000E050FC4F80810895EEEFF3E040814F731E
:100690002081822F82958695869583702091FF0315
:1006A0002F70220F220F282B30E02150310950E00B
:1006B00081E02417350709F480E00895EEEFF3E0B8
:1006C0008081807C808380818F7380838181807F23
:1006D0008183E0E4F4E08081807C808380818F737B
:1006E00080838181807F818308950F931F93CF93AF
:1006F000DF93FC019B01C0E0D0E0042F10E002C0BA
:10070000EC01FD01C901B801A6D0262F372F8A3090
:10071000910510F0895C01C0805DDF011196808336
:10072000CE0101962115310559F71182A81BB90B8D
:10073000209799F0FD01A80FB91F80E090E020817B
:100740003E91231711F030832C93019631969E0130
:10075000281B390B8217930790F3DF91CF911F91DC
:100760000F91089522E02093C00028E92093C10052
:1007700026E02093C200892B39F48FEC90E090930F
:10078000C5008093C40006C087E690E09093C50042
:100790008093C400789492CF0895E0E4F4E0A1E45B
:1007A000B4E040814F732081922F92959695969553
:1007B00093702C912F70220F220F292B50E030E0E4
:1007C000215031094217530761F3E0E4F4E030812E
:1007D0003F739081292F229526952695237090911D
:1007E00041049F70990F990F922B391315C0DF01A7
:1007F000E081EF7391E09E0F292F2F739C91907CE5
:10080000922B9C93F0E0E050FC4F8083E1ECF0E011
:100810008081806280830895A0E4B4E0EC91EF735E
:1008200091E09E0F292F2F739C91907C922B9C938B
:10083000F0E0E050FC4F80830895CF93DF93EC010C
:100840008881882329F02196A8DF89918111FCCF26
:10085000DF91CF910895AA1BBB1B51E107C0AA1FCE
:10086000BB1FA617B70710F0A61BB70B881F991F51
:100870005A95A9F780959095BC01CD01089597FBF5
:10088000072E16F4009406D077FD08D0E4DF07FCAD
:1008900005D03EF4909581959F4F08957095619590
:1008A0007F4F0895052E97FB16F400940FD057FD47
:1008B00005D014D007FC02D046F408C050954095EE
:1008C000309521953F4F4F4F5F4F089590958095FC
:1008D000709561957F4F8F4F9F4F0895A1E21A2E1B
:1008E000AA1BBB1BFD010DC0AA1FBB1FEE1FFF1FD4
:1008F000A217B307E407F50720F0A21BB30BE40B24
:10090000F50B661F771F881F991F1A9469F760956A
:100910007095809590959B01AC01BD01CF01089524
:04092000F894FFCF79
:10092400010A0A0D414443207265616420657869B7
:1009340074000A0A0D50726573696F6E65207061E8
:10094400726120636170747572617220656C206DD0
:10095400696E696D6F000A0D416E7465732064657C
:10096400206164632072656164000A0A0D50726537
:1009740073696F6E65207061726120636170747554
:1009840072617220656C206D6178696D6F2E000A4A
:100994000D4F66667365742063617074757261646B
:1009A4006F3A000A0D566F6C756D656E3A2000B88B
:1009B40001F401B801F401B801F4015D0177010B00
:1009C400027D00B801F4015D0177010B027D00B8DE
:1009D40001E8039302F4019302F4019302F401BACF
:1009E4000277010B027D009F01F4015D0177010B89
:1009F400027D00B801E8037003F401B8017701B87F
:100A0400017D007003F4013E03FA001003FA00E4D0
:100A1400027D00BA027D00E402FA000000FA00C779
:100A240001FA006E02F4014B02FA002A02FA000BEA
:100A3400027D00D2017D000B02FA000000FA005D85
:100A4400017D009F01F4015D017701B8017D000B78
:100A540002F401B80177010B027D009302E80370F0
:100A640003F401B8017701B8017D007003F4013E7D
:100A740003FA001003FA00E4027D00BA027D00E4E8
:100A840002FA000000FA00C701FA006E02F4014BFA
:100A940002FA002A02FA000B027D00D2017D000B4B
:100AA40002FA000000FA005D01FA009F01F4015D02
:100AB4000177010B027D00B801F4015D01770105A6
:080AC400017D00B801E8030008
:00000001FF
